:1007CF004D616E75616C0054696D696E67004C699F
:1007DF0067696E6700323020202D20202D202020C9
:1007EF0020203A2020002020202020202020202000
:1007FF0020677A3A202000204F70656E54696D652E
:10080F002020203A20202000436C6F736554696DBF
:10081F00652020203A202020002020204C69676886
:10082F0074205365742020202000202020202020B9
:10083F0020202020202020202020001020408080F9
:03084F0040201036
:100BE10001130101111201081401100A01141E015F
:0B0BF1001228070911090106121E2836
:040B9A007F0A7E0050
:100B9E00E4FDFCC3ED9FEC9E5015E4FBFA0BBB008D
:0F0BAE00010AEB64704A70F50DBD00010C80E484
:010BBD002215
:100C1700C293C294C2958F807F027E00120B9ED230
:070C270095120B9EC29522FD
:100C2E00D293C294C2958F807F027E00120B9ED209
:070C3E0095120B9EC29522E6
:100C45007F38120C177F0C120C177F06120C177FBA
:040C550001020C1775
:090B5000AF11120BFD7D0BE4FF57
:100B59008F26A905E5267007E92480FF120C17E501
:0C0B690026B40107E924C0FF120C17227B
:100B75008B268A278928AB26AA27A9281205A860CB
:100B8500130528E5287002052714F91205A8FF1298
:050B95000C2E80E2229D
:100BFD00A907E975F00A842430FF120C2EE975F06F
:0A0C0D000A84E5F02430FF020C2EEB
:100B2A00EF24FE600F146014240270197BFF7A0709
:100B3A0079CF800E7BFF7A0779D680067BFF7A070A
:060B4A0079DD120B75229B
:100AFF00E4FDFF120B597BFF7A0779E4120B75E4C3
:100B0F00FD7F01120B597BFF7A0779F5120B75E404
:0B0B1F00FD7F01120B59AF13020B2ADF
:100A3F007D02E4FF120B59AF09120BFD7D05E4FF98
:100A4F00120B59AF0A120BFD7D08E4FF120B59AFC1
:100A5F000B120B52AF0D120BFD7D0EE4FF120B5953
:100A6F00AF0E120BFD7D0DE4FF120B59E50F20E0C9
:0B0A7F00047F3A80027F20120C2E2220
:070C7400C292C290C291225E
:100A8A00D292E4FDEF30E004D2918002C291D2907A
:100A9A0000C29000EFC313FF0DBD08E8E4FDEEC3EA
:100AAA0013FE309105430680800353067FD29000DF
:0B0ABA00C290000DBD08E7C292AF061D
:010AC500220E
:100AC600D292E4FEEF30E004D2918002C291D2903D
:100AD60000C29000EFC313FF0EBE08E8E4FEED303F
:100AE600E004D2918002C291D29000C29000EDC380
:080AF60013FD0EBE08E8C292D8
:010AFE0022D5
:10085200E4FF74092FF8E6FE75F00A84C454F0FD33
:10086200EE75F00A84AEF0ED2EFC74092FF8A604A2
:100872000FBF07DEE4FD7F8E120AC67D807F8012E5
:100882000AC6AD097F8C120AC6AD0A7F88120AC653
:10089200AD0B7F86120AC6AD0C7F8A120AC6AD0D59
:1008A2007F84120AC6AD0E7F82120AC6AD0F7F8008
:1008B200120AC6E50F547FFD7F80120AC67D807F33
:0408C2008E020AC6D2
:10099A007F8D120A8A8F097F89120A8A8F0A7F87B6
:1009AA00120A8A8F0B7F8B120A8A8F0C7F85120A92
:1009BA008A8F0D7F83120A8A8F0E7F81120A8AEF2D
:1009CA00547FF50FE4FF74092FF8E6FEC4540F753F
:1009DA00F00AA4FDEE540F2DFE74092FF8A6060F97
:0309EA00BF07E361
:0109ED0022E7
:1009EE00E4FFFEFDC297D2B0C296D297C297A20084
:1009FE0092B0D297C297A20192B0D297C297D2B0BC
:100A0E00D297C297EE25E0FE30B0010E0FBF08F070
:100A1E00E4FFEDC313FD30B0032480FDD297C297DF
:100A2E000FBF08EED296D297EEB50502FF227F00D9
:010A3E002295
:10024D0030B4030204487D0DE4FF120B597F3A12BE
:10025D000C2E7F0F120C177D03E4FF120B59120B9E
:10026D009A30B4FD120B9A20B623E509D3940040C1
:10027D000215097D02E4FF120B59AF09120BFD7D2A
:10028D0003E4FF120B597F2C7E01120B9E20B72326
:10029D00E509C39463500205097D02E4FF120B5971
:1002AD00AF09120BFD7D03E4FF120B597F2C7E016C
:1002BD00120B9E20B4B17D06E4FF120B59120B9A5E
:1002CD0030B4FD120B9A20B623E50AD394014002F7
:1002DD00150A7D05E4FF120B59AF0A120BFD7D06C1
:1002ED00E4FF120B597F2C7E01120B9E20B723E5E4
:1002FD000AC3940C5002050A7D05E4FF120B59AF99
:10030D000A120BFD7D06E4FF120B597F2C7E0112A4
:10031D000B9E20B4B17D09E4FF120B59120B9A30DC
:10032D00B4FD120B9A20B623E50BD39401400215B0
:10033D000B7D08E4FF120B59AF0B120BFD7D09E489
:10034D00FF120B597F2C7E01120B9E20B723E50B5C
:10035D00C3941F5002050B7D08E4FF120B59AF0B20
:10036D00120BFD7D09E4FF120B597F2C7E01120B40
:10037D009E20B4B17D0CE4FF120B59120B9A30B4D0
:10038D00FD120B9A20B61FE50DD394004002150DFA
:10039D00120B55AF0D120BFD7D0CE4FF120B597FA7
:1003AD002C7E01120B9E20B71FE50DC39417500232
:1003BD00050D120B55AF0D120BFD7D0CE4FF120B4D
:1003CD00597F2C7E01120B9E20B4B97D0FE4FF12D4
:1003DD000B59120B9A30B4FD120B9A20B623E50E71
:1003ED00D394004002150E7D0EE4FF120B59AF0E93
:1003FD00120BFD7D0FE4FF120B597F2C7E01120BAA
:10040D009E20B723E50EC3943B5002050E7D0EE4EE
:10041D00FF120B59AF0E120BFD7D0FE4FF120B599E
:10042D007F2C7E01120B9E20B4B17F0C120C171283
:0C043D000852120B9A30B4FD120B9A22E8
:1000060030B50302024CE4FDFF120B597BFF7A0860
:100016007906120B75E4FD7F01120B597BFF7A08F6
:100026007917120B757D0AE4FF120B59AF11120BEB
:10003600FD7D0DE4FF120B59AF08120BFD7D0A7F03
:1000460001120B59AF10120BFD7D0D7F01120B59DA
:10005600AF14120BFD7F0F120C17120B55120B9AD1
:1000660030B5FD120B9A20B61AE511D39400400262
:1000760015117D0AE4FF120B59120B507F2C7E01DD
:10008600120B9E20B71AE511C39417500205117D75
:100096000AE4FF120B59120B507F2C7E01120B9EA5
:1000A60020B5C37D0EE4FF120B59120B9A30B5FD35
:1000B600120B9A20B623E508D39400400215087D5A
:1000C6000DE4FF120B59AF08120BFD7D0EE4FF1273
:1000D6000B597F2C7E01120B9E20B723E508C39493
:1000E6003B500205087D0DE4FF120B59AF08120BB9
:1000F600FD7D0EE4FF120B597F2C7E01120B9E2014
:10010600B5B17D0B7F01120B59120B9A30B5FD125A
:100116000B9A20B623E510D39400400215107D0AF1
:100126007F01120B59AF10120BFD7D0B7F01120BD5
:10013600597F2C7E01120B9E20B723E510C394171E
:10014600500205107D0A7F01120B59AF10120BFDEC
:100156007D0B7F01120B597F2C7E01120B9E20B561
:10016600B17D0E7F01120B59120B9A30B5FD120BA1
:100176009A20B623E514D39400400215147D0D7F12
:1001860001120B59AF14120BFD7D0E7F01120B5994
:100196007F2C7E01120B9E20B723E514C3943B509F
:1001A6000205147D0D7F01120B59AF14120BFD7D54
:1001B6000E7F01120B597F2C7E01120B9E20B5B1CA
:1001C600120B9A30B5FD120B9A7F0C120C17E4FD38
:1001D600FF120B597BFF7A087928120B75E4FD7F15
:1001E60001120B597BFF7A087939120B757D077F4F
:1001F60001120B59AF12120BFD20B61CE512D39457
:1002060000400215127D077F01120B59AF12120B27
:10021600FD7F2C7E01120B9E20B71CE512C3946352
:10022600500205127D077F01120B59AF12120BFD0A
:100236007F2C7E01120B9E20B5BF120AFF120B9A6D
:0702460030B5FD120B9A22F6
:100BBE0020B31F0513E513B40403751301E4FD7F81
:100BCE0001120B59AF13120B2A120B9A30B3FD12EE
:030BDE000B9A224D
:1008C600E4F526F527900000E58245837008D2A45A
:1008D600C2A5C2A6C2A7E582640145837008C2A468
:1008E600D2A5C2A6C2A7E582640245837008C2A447
:1008F600C2A5D2A6C2A7E582640345837008C2A436
:10090600C2A5C2A6D2A77F037E00120B9EA3E582D4
:100916006404458370B20527E52770020526C39453
:09092600DCE5269400409EC2A00D
:01092F0022A5
:10093000E4F526F527900000E58245837008C2A4FF
:10094000C2A5C2A6D2A7E582640145837008C2A4ED
:10095000C2A5D2A6C2A7E582640245837008C2A4DC
:10096000D2A5C2A6C2A7E582640345837008D2A4BB
:10097000C2A5C2A6C2A77F037E00120B9EA3E5827A
:100980006404458370B20527E52770020526C394E9
:09099000DCE5269400409ED2A093
:01099900223B
:090C6B0075A881758801D2B2223E
:1005CF00120C6B120C45120C74120AFF7F81120A67
:1005DF008AEFC39480400312085212099A120A3FFD
:1005EF00D200C2011209EE8F25AC25E41204F3E408
:1005FF00FBFA7920784012044C1205278F25E52548
:10060F00D3946340037525637D0E7F01120B59AFA1
:10061F0025120BFD12024D120006120BBEE513B48C
:10062F00011220B60620A00312093020B70630A011
:10063F00031208C6E51364027028E50DB5100FE527
:10064F000EB5140AE50F700620A003120930E50D50
:10065F00B5110FE50EB5080AE50F700630A00312AD
:10066F0008C6E513B40315E525C39512500820A05D
:10067F000B120930800630A0031208C67F647E007B
:06068F00120B9E0205E9BA
:100C5900AD071FED600BE4FEEEC3940D50F20E805C
:010C6900F793
:010C6A002267
:030003000206955D
:0B069500C0E0C083C082C0D075D00060
:1006A000752200C2A87F0F120C5930B205D2A802E1
:1006B000073A20B2077F01120C5980F6E4FC75213D
:1006C0000030B2077F01120C5980F620B2077F017B
:1006D000120C5980F630B2127F01120C590522E536
:1006E00022C3941E40EFD2A8805074152CF8C0008D
:1006F000E6FFC313D000F6E522C394084008741542
:100700002CF8E64480F67522000521E521C3940803
:1007100040AF0CEC640470A6E517B4450BE513B4C8
:10072000010620A003120930E517B4470BE513B406
:0A073000010630A0031208C6D2A88B
:09073A00D0D0D082D083D0E0328F
:1004490002059DEC5D046005E859047003020593FB
:1004590012055E580460F6EC4860F2EC7004FDFE8B
:10046900FF22C860DB2481C85009C3986002500686
:1004790002059A9850CAF582E9294B4A7005AB8260
:1004890002058975F0007C1A7880C3EF9BEE9AED1E
:1004990099400DC3EF9BFFEE9AFEED99FDE842F0FE
:1004A900DC23ACF0D0E0FFD0E0FED0E0FDAB822051
:1004B900E7101BEB60BAEC2CFCEF33FFEE33FEEDDB
:1004C90033FD020575E803F830E705C0F075F00063
:1004D900EF2FFFEE33FEED33FD40B830E7C280AABF
:1004E90075F020800E75F010800575F0087D007E8E
:1004F900007F003392D530D5031205C1EC3340108B
:10050900EF33FFEE33FEED33FDEC33FCD5F0ED2296
:0E051900E5F0247EA2D513CC92E7CDCEFF22D2
:10052700EDD2E7CD33EC3392D524814006E4FFFECC
:10053700FDFC22FCE4CFCECDCC24E0501174FF802B
:10054700EDC3CC13CCCD13CDCE13CECF13CF0470C8
:07055700F030D5DE0205C102
:10055E00E9D2E7C933E833F892D5EDD2E7CD33ECE3
:07056E0033FC5002B2D5225C
:10057500EC30E7100FBF000C0EBE00080DBD0004E7
:100585000BEB6014A2D5EB13FCED92E7FD2274FF93
:10059500FCFDFEFF22E480F8A2D574FF13FC7D80EC
:0305A500E480EF00
:03000000020743B1
:0C074300787FE4F6D8FD75812802078A53
:1005A800BB010689828A83E0225002E722BBFE0251
:0905B800E32289828A83E4932284
:0E05C100C3E49FFFE49EFEE49DFDE49CFC224B
:10074F000205CFE493A3F8E493A34003F68001F2EC
:10075F0008DFF48029E493A3F85407240CC8C333AB
:10076F00C4540F4420C8834004F456800146F6DF7A
:10077F00E4800B0102040810204080900BE1E47E1E
:10078F00019360BCA3FF543F30E509541FFEE4936F
:10079F00A360010ECF54C025E060A840B8E493A336
:1007AF00FAE493A3F8E493A3C8C582C8CAC583CA61
:1007BF00F0A3C8C582C8CAC583CADFE9DEE780BE19
:010BFC0000F8
:00000001FF
